{
  "abi": [
    {
      "type": "constructor",
      "inputs": [
        {
          "name": "_prover",
          "type": "address",
          "internalType": "address"
        },
        {
          "name": "_sXMRAddress",
          "type": "address",
          "internalType": "address"
        }
      ],
      "stateMutability": "nonpayable"
    },
    {
      "type": "function",
      "name": "_setTestVerifier",
      "inputs": [
        {
          "name": "newVerifier",
          "type": "address",
          "internalType": "contract IProofVerifier"
        }
      ],
      "outputs": [],
      "stateMutability": "nonpayable"
    },
    {
      "type": "function",
      "name": "depositLiquidity",
      "inputs": [
        {
          "name": "amount",
          "type": "uint256",
          "internalType": "uint256"
        }
      ],
      "outputs": [],
      "stateMutability": "nonpayable"
    },
    {
      "type": "function",
      "name": "depositedLiqudity",
      "inputs": [
        {
          "name": "",
          "type": "address",
          "internalType": "address"
        }
      ],
      "outputs": [
        {
          "name": "",
          "type": "uint256",
          "internalType": "uint256"
        }
      ],
      "stateMutability": "view"
    },
    {
      "type": "function",
      "name": "prover",
      "inputs": [],
      "outputs": [
        {
          "name": "",
          "type": "address",
          "internalType": "address"
        }
      ],
      "stateMutability": "view"
    },
    {
      "type": "function",
      "name": "sXMRAddress",
      "inputs": [],
      "outputs": [
        {
          "name": "",
          "type": "address",
          "internalType": "address"
        }
      ],
      "stateMutability": "view"
    },
    {
      "type": "function",
      "name": "verifier",
      "inputs": [],
      "outputs": [
        {
          "name": "",
          "type": "address",
          "internalType": "contract IProofVerifier"
        }
      ],
      "stateMutability": "view"
    },
    {
      "type": "function",
      "name": "verifyDeposit",
      "inputs": [
        {
          "name": "",
          "type": "tuple",
          "internalType": "struct Proof",
          "components": [
            {
              "name": "seal",
              "type": "tuple",
              "internalType": "struct Seal",
              "components": [
                {
                  "name": "verifierSelector",
                  "type": "bytes4",
                  "internalType": "bytes4"
                },
                {
                  "name": "seal",
                  "type": "bytes32[8]",
                  "internalType": "bytes32[8]"
                },
                {
                  "name": "mode",
                  "type": "uint8",
                  "internalType": "enum ProofMode"
                }
              ]
            },
            {
              "name": "callGuestId",
              "type": "bytes32",
              "internalType": "bytes32"
            },
            {
              "name": "length",
              "type": "uint256",
              "internalType": "uint256"
            },
            {
              "name": "callAssumptions",
              "type": "tuple",
              "internalType": "struct CallAssumptions",
              "components": [
                {
                  "name": "proverContractAddress",
                  "type": "address",
                  "internalType": "address"
                },
                {
                  "name": "functionSelector",
                  "type": "bytes4",
                  "internalType": "bytes4"
                },
                {
                  "name": "settleChainId",
                  "type": "uint256",
                  "internalType": "uint256"
                },
                {
                  "name": "settleBlockNumber",
                  "type": "uint256",
                  "internalType": "uint256"
                },
                {
                  "name": "settleBlockHash",
                  "type": "bytes32",
                  "internalType": "bytes32"
                }
              ]
            }
          ]
        },
        {
          "name": "evmRecipientAddress",
          "type": "address",
          "internalType": "address"
        },
        {
          "name": "txId",
          "type": "string",
          "internalType": "string"
        },
        {
          "name": "amount",
          "type": "uint256",
          "internalType": "uint256"
        }
      ],
      "outputs": [],
      "stateMutability": "nonpayable"
    },
    {
      "type": "function",
      "name": "withdrawLiquidity",
      "inputs": [
        {
          "name": "amount",
          "type": "uint256",
          "internalType": "uint256"
        }
      ],
      "outputs": [],
      "stateMutability": "nonpayable"
    },
    {
      "type": "function",
      "name": "withdrawRequests",
      "inputs": [
        {
          "name": "",
          "type": "address",
          "internalType": "address"
        }
      ],
      "outputs": [
        {
          "name": "",
          "type": "uint256",
          "internalType": "uint256"
        }
      ],
      "stateMutability": "view"
    },
    {
      "type": "event",
      "name": "sXMRLiqudityDeposited",
      "inputs": [
        {
          "name": "amount",
          "type": "uint256",
          "indexed": false,
          "internalType": "uint256"
        },
        {
          "name": "depositor",
          "type": "address",
          "indexed": false,
          "internalType": "address"
        }
      ],
      "anonymous": false
    },
    {
      "type": "event",
      "name": "withdrawnLiquidity",
      "inputs": [
        {
          "name": "amount",
          "type": "uint256",
          "indexed": false,
          "internalType": "uint256"
        },
        {
          "name": "requester",
          "type": "address",
          "indexed": false,
          "internalType": "address"
        }
      ],
      "anonymous": false
    },
    {
      "type": "event",
      "name": "xmrDeposited",
      "inputs": [
        {
          "name": "amount",
          "type": "uint256",
          "indexed": false,
          "internalType": "uint256"
        },
        {
          "name": "recipient",
          "type": "address",
          "indexed": false,
          "internalType": "address"
        }
      ],
      "anonymous": false
    },
    {
      "type": "error",
      "name": "InvalidChainId",
      "inputs": []
    }
  ],
  "bytecode": {
    "object": "0x60a0604052346100395761001a61001461010d565b906101a9565b61002261003e565b6121cd610d308239608051816110c601526121cd90f35b610044565b60405190565b5f80fd5b601f801991011690565b634e487b7160e01b5f52604160045260245ffd5b9061007090610048565b810190811060018060401b0382111761008857604052565b610052565b906100a061009961003e565b9283610066565b565b5f80fd5b60018060a01b031690565b6100ba906100a6565b90565b6100c6816100b1565b036100cd57565b5f80fd5b905051906100de826100bd565b565b919060408382031261010857806100fc610105925f86016100d1565b936020016100d1565b90565b6100a2565b61012b617be6803803806101208161008d565b9283398101906100e0565b9091565b5f1b90565b9061014560018060a01b039161012f565b9181191691161790565b90565b61016661016161016b926100a6565b61014f565b6100a6565b90565b61017790610152565b90565b6101839061016e565b90565b90565b9061019e6101996101a59261017a565b610186565b8254610134565b9055565b906101c06101c7926101b9610204565b6001610189565b6002610189565b565b6101d290610152565b90565b6101de906101c9565b90565b90565b906101f96101f4610200926101d5565b6101e1565b8254610134565b9055565b61021561020f61034b565b5f6101e4565b33608052565b5f90565b610228906101c9565b90565b610234906101c9565b90565b6102409061016e565b90565b61024c906100b1565b9052565b91602061027192949361026a60408201965f830190610243565b0190610243565b565b61027b61003e565b3d5f823e3d90fd5b61028c9061016e565b90565b90565b90565b6102a96102a46102ae9261028f565b61012f565b610292565b90565b6102da7fdcb00648ecc90d8bfe92aa8d51061beb0bcb110d274fc4a517e526574233d36b610295565b90565b5f80fd5b60e01b90565b5f9103126102f157565b6100a2565b6102ff90610292565b9052565b9190610316905f602085019401906102f6565b565b61032190610283565b9052565b9190610338905f60208501940190610318565b565b610343906101c9565b90565b5f0190565b61035361021b565b5061035c6104fd565b5f1461049a5761036b30610237565b61037430610237565b9061037d61003e565b916123fe83019083821060018060401b038311176104955783926103a8926123fe612efd8639610250565b03905ff08015610490576103bb81610283565b6384cf84e16103c86102b1565b823b1561048b576103f8926103ed5f80946103e161003e565b968795869485936102e1565b835260048301610303565b03925af180156104865761045a575b5061041061003e565b906128eb820182811060018060401b0382111761045557829161043a916128eb6152fb8539610325565b03905ff080156104505761044d9061033a565b90565b610273565b610052565b610479905f3d811161047f575b6104718183610066565b8101906102e7565b5f610407565b503d610467565b610273565b6102dd565b610273565b610052565b6104a2610640565b5f146104bb576104b86104b3610a5c565b61022b565b90565b6104c361086f565b6104e3575f633d23e4d160e11b8152806104df60048201610346565b0390fd5b6104f66104ee6109df565b91505061021f565b90565b5f90565b6105056104f9565b5061050e610ac3565b8015610518575b90565b50610521610ca5565b610515565b90565b90565b61054061053b61054592610529565b61014f565b610526565b90565b90565b61055f61055a61056492610548565b61014f565b610526565b90565b90565b61057e61057961058392610567565b61014f565b610526565b90565b90565b61059d6105986105a292610586565b61014f565b610526565b90565b90565b6105bc6105b76105c1926105a5565b61014f565b610526565b90565b90565b6105db6105d66105e0926105c4565b61014f565b610526565b90565b90565b6105fa6105f56105ff926105e3565b61014f565b610526565b90565b90565b61061961061461061e92610602565b61014f565b610526565b90565b90565b61063861063361063d92610621565b61014f565b610526565b90565b6106486104f9565b504661065d610657600161052c565b91610526565b14801561075c575b8015610741575b8015610725575b8015610709575b80156106ed575b80156106d1575b80156106b5575b8015610699575b90565b50466106af6106a961e708610624565b91610526565b14610696565b50466106cb6106c561a4ba610605565b91610526565b1461068f565b50466106e76106e161a4b16105e6565b91610526565b14610688565b50466107036106fd6121056105c7565b91610526565b14610681565b504661071f6107196101e06105a8565b91610526565b1461067a565b504661073b610735610144610589565b91610526565b14610673565b5046610756610750608961056a565b91610526565b1461066c565b504661077161076b600a61054b565b91610526565b14610665565b90565b61078e61078961079392610777565b61014f565b610526565b90565b90565b6107ad6107a86107b292610796565b61014f565b610526565b90565b90565b6107cc6107c76107d1926107b5565b61014f565b610526565b90565b90565b6107eb6107e66107f0926107d4565b61014f565b610526565b90565b90565b61080a61080561080f926107f3565b61014f565b610526565b90565b90565b61082961082461082e92610812565b61014f565b610526565b90565b90565b61084861084361084d92610831565b61014f565b610526565b90565b90565b61086761086261086c92610850565b61014f565b610526565b90565b6108776104f9565b504661088e61088862aa36a761077a565b91610526565b14801561096f575b8015610953575b8015610937575b801561091a575b80156108fd575b80156108e0575b80156108c3575b90565b50466108da6108d462aa37dc610853565b91610526565b146108c0565b50466108f76108f162066eee610834565b91610526565b146108b9565b504661091461090e62014a34610815565b91610526565b146108b2565b504661093161092b620138826107f6565b91610526565b146108ab565b504661094d61094761e7056107d7565b91610526565b146108a4565b50466109696109636112c16107b8565b91610526565b1461089d565b504661098561097f61012c610799565b91610526565b14610896565b5f90565b5f90565b5f90565b6109a090610152565b90565b6109ac90610997565b90565b6109b890610152565b90565b6109c4906109af565b90565b6109d090610152565b90565b6109dc906109c7565b90565b6109e761098b565b506109f061098f565b506109f9610993565b50610a17739e30dc3e49c4d47f982902710616dcc4b6ff7bf56109a3565b90610a35737e231cfc3e3b549633d5ad61c30f07dd4d408ad36109bb565b90610a53738972b6ff413ac04e61e19f07d7f3bd980d0cc3216109d3565b92919291929190565b610a6461098f565b50610a82735553cf6ce25e3f80fad2866f6230346159ecd89c6109bb565b90565b90565b610a9c610a97610aa192610a85565b61014f565b610526565b90565b90565b610abb610ab6610ac092610aa4565b61014f565b610526565b90565b610acb6104f9565b5046610ae1610adb617a69610a88565b91610526565b148015610aec575b90565b5046610b03610afd62049919610aa7565b91610526565b14610ae9565b73f4e4fdca9d5d55e64525e314391996a15f7ec60090565b610b2a90610152565b90565b90565b610b44610b3f610b4992610b2d565b61014f565b6100a6565b90565b634e487b7160e01b5f52601160045260245ffd5b610b6c610b72916100a6565b916100a6565b019060018060a01b038211610b8357565b610b4c565b610bb3610bae610b9e610b99610b09565b610b21565b610ba8601e610b30565b90610b60565b61016e565b90565b905090565b610bc65f8092610bb6565b0190565b610bd390610bbb565b90565b60018060401b038111610bf257610bee602091610048565b0190565b610052565b90610c09610c0483610bd6565b61008d565b918252565b606090565b3d5f14610c2e57610c233d610bf7565b903d5f602084013e5b565b610c36610c0e565b90610c2c565b151590565b5190565b90565b610c5c610c57610c6192610c45565b61014f565b610526565b90565b610c6d81610c3c565b03610c7457565b5f80fd5b90505190610c8582610c64565b565b90602082820312610ca057610c9d915f01610c78565b90565b6100a2565b610cad6104f9565b505f80610cb8610b88565b610cc061003e565b80610cca81610bca565b03915afa610ce0610cd9610c13565b9115610c3c565b8015610d0d575b610d0857610d05906020610cfa82610c41565b818301019101610c87565b90565b505f90565b50610d1781610c41565b610d29610d235f610c48565b91610526565b14610ce756fe60806040526004361015610013575b610610565b61001d5f356100ac565b80630a861f2a146100a75780632b7ac3f3146100a257806332a8f30f1461009d57806348386b921461009857806352df49ec1461009357806368dc52b11461008e57806376d58e1a14610089578063785ec2391461008457639b8b30c80361000e576105dd565b61055b565b610519565b6104e2565b6103e3565b610395565b610299565b6101f6565b61010d565b60e01c90565b60405190565b5f80fd5b5f80fd5b5f80fd5b90565b6100d0816100c4565b036100d757565b5f80fd5b905035906100e8826100c7565b565b9060208282031261010357610100915f016100db565b90565b6100bc565b5f0190565b3461013b576101256101203660046100ea565b61088a565b61012d6100b2565b8061013781610108565b0390f35b6100b8565b5f91031261014a57565b6100bc565b1c90565b60018060a01b031690565b61016e906008610173930261014f565b610153565b90565b90610181915461015e565b90565b61018f5f5f90610176565b90565b60018060a01b031690565b90565b6101b46101af6101b992610192565b61019d565b610192565b90565b6101c5906101a0565b90565b6101d1906101bc565b90565b6101dd906101c8565b9052565b91906101f4905f602085019401906101d4565b565b3461022657610206366004610140565b610222610211610184565b6102196100b2565b918291826101e1565b0390f35b6100b8565b60018060a01b031690565b61024690600861024b930261014f565b61022b565b90565b906102599154610236565b90565b61026860015f9061024e565b90565b61027490610192565b90565b6102809061026b565b9052565b9190610297905f60208501940190610277565b565b346102c9576102a9366004610140565b6102c56102b461025c565b6102bc6100b2565b91829182610284565b0390f35b6100b8565b6102d78161026b565b036102de57565b5f80fd5b905035906102ef826102ce565b565b9060208282031261030a57610307915f016102e2565b90565b6100bc565b610318906101bc565b90565b906103259061030f565b5f5260205260405f2090565b90565b610344906008610349930261014f565b610331565b90565b906103579154610334565b90565b6103709061036b6003915f9261031b565b61034c565b90565b61037c906100c4565b9052565b9190610393905f60208501940190610373565b565b346103c5576103c16103b06103ab3660046102f1565b61035a565b6103b86100b2565b91829182610380565b0390f35b6100b8565b6103e0906103db6004915f9261031b565b61034c565b90565b346104135761040f6103fe6103f93660046102f1565b6103ca565b6104066100b2565b91829182610380565b0390f35b6100b8565b5f80fd5b908161022091031261042b5790565b610418565b5f80fd5b5f80fd5b5f80fd5b909182601f830112156104765781359167ffffffffffffffff831161047157602001926001830284011161046c57565b610438565b610434565b610430565b919091610280818403126104dd57610495835f830161041c565b926104a48161022084016102e2565b9261024083013567ffffffffffffffff81116104d8576104c9836104d592860161043c565b939094610260016100db565b90565b6100c0565b6100bc565b34610514576104fe6104f536600461047b565b93929092610c78565b6105066100b2565b8061051081610108565b0390f35b6100b8565b346105475761053161052c3660046100ea565b610cea565b6105396100b2565b8061054381610108565b0390f35b6100b8565b61055860025f9061024e565b90565b3461058b5761056b366004610140565b61058761057661054c565b61057e6100b2565b91829182610284565b0390f35b6100b8565b6105999061026b565b90565b6105a581610590565b036105ac57565b5f80fd5b905035906105bd8261059c565b565b906020828203126105d8576105d5915f016105b0565b90565b6100bc565b3461060b576105f56105f03660046105bf565b6110b6565b6105fd6100b2565b8061060781610108565b0390f35b6100b8565b5f80fd5b5f1c90565b61062561062a91610614565b610331565b90565b6106379054610619565b90565b60209181520190565b5f7f496e73756666696369656e74206c697175696469747900000000000000000000910152565b610677601660209261063a565b61068081610643565b0190565b6106999060208101905f81830391015261066a565b90565b156106a357565b6106ab6100b2565b62461bcd60e51b8152806106c160048201610684565b0390fd5b634e487b7160e01b5f52601160045260245ffd5b6106e86106ee919392936100c4565b926100c4565b82039182116106f957565b6106c5565b5f1b90565b9061070f5f19916106fe565b9181191691161790565b61072d610728610732926100c4565b61019d565b6100c4565b90565b90565b9061074d61074861075492610719565b610735565b8254610703565b9055565b61076461076991610614565b61022b565b90565b6107769054610758565b90565b610782906101a0565b90565b61078e90610779565b90565b61079a906101bc565b90565b5f80fd5b601f801991011690565b634e487b7160e01b5f52604160045260245ffd5b906107c9906107a1565b810190811067ffffffffffffffff8211176107e357604052565b6107ab565b60e01b90565b151590565b6107fc816107ee565b0361080357565b5f80fd5b90505190610814826107f3565b565b9060208282031261082f5761082c915f01610807565b90565b6100bc565b91602061085592949361084e60408201965f830190610277565b0190610373565b565b61085f6100b2565b3d5f823e3d90fd5b91602061088892949361088160408201965f830190610373565b0190610277565b565b6108ba6108a161089c6003339061031b565b61062d565b6108b36108ad846100c4565b916100c4565b101561069c565b6108e2816108dc6108cd6003339061031b565b916108d78361062d565b6106d9565b90610738565b6108fc6108f76108f2600261076c565b610785565b610791565b602063a9059cbb9133906109235f869561092e6109176100b2565b978896879586946107e8565b845260048401610834565b03925af180156109a65761097a575b50337f0f25e845c943e2d4176c774a829dc66c80e99d0b98cdda434ae9ef4553bcbb3a9161097561096c6100b2565b92839283610867565b0390a1565b61099a9060203d811161099f575b61099281836107bf565b810190610816565b61093d565b503d610988565b610857565b906109d3949392916109ce6109c0600161076c565b631b0842f560e01b90611432565b610b2b565b565b905090565b90825f939282370152565b9091826109f5816109fc936109d5565b80936109da565b0190565b9091610a0b926109e5565b90565b60200190565b5190565b90565b610a2490610a18565b90565b90610a3190610a1b565b5f5260205260405f2090565b60ff1690565b610a4f610a5491610614565b610a3d565b90565b610a619054610a43565b90565b5f7f4b657920616c7265616479207573656400000000000000000000000000000000910152565b610a98601060209261063a565b610aa181610a64565b0190565b610aba9060208101905f818303910152610a8b565b90565b15610ac457565b610acc6100b2565b62461bcd60e51b815280610ae260048201610aa5565b0390fd5b90610af260ff916106fe565b9181191691161790565b610b05906107ee565b90565b90565b90610b20610b1b610b2792610afc565b610b08565b8254610ae6565b9055565b509291610b5b610baf92610b4c610b406100b2565b93849260208401610a00565b602082018103825203826107bf565b610b6d610b6782610a14565b91610a0e565b20610b9d610b85610b8060058490610a27565b610a57565b610b97610b915f6107ee565b916107ee565b14610abd565b610baa6001916005610a27565b610b0b565b610bc9610bc4610bbf600261076c565b610785565b610791565b602063a9059cbb918490610bf05f8695610bfb610be46100b2565b978896879586946107e8565b845260048401610834565b03925af18015610c7357610c47575b50907f13c10306cf29cdc0f1f0a76c5d93dc0f6b2bf2ab909318d904beb87fcabe770d91610c42610c396100b2565b92839283610867565b0390a1565b610c679060203d8111610c6c575b610c5f81836107bf565b810190610816565b610c0a565b503d610c55565b610857565b90610c85949392916109ab565b565b610c90906101bc565b90565b604090610cbc610cc39496959396610cb260608401985f850190610277565b6020830190610277565b0190610373565b565b610cd4610cda919392936100c4565b926100c4565b8201809211610ce557565b6106c5565b610d04610cff610cfa600261076c565b610785565b610791565b60206323b872dd913390610d345f610d1b30610c87565b95610d3f88610d286100b2565b988997889687956107e8565b855260048501610c93565b03925af18015610ddf57610db3575b50610d7781610d71610d626003339061031b565b91610d6c8361062d565b610cc5565b90610738565b337f1bb7e204fc0ea20116d871165e14a55787a743ac5f14ff571c885f1d0162e72191610dae610da56100b2565b92839283610867565b0390a1565b610dd39060203d8111610dd8575b610dcb81836107bf565b810190610816565b610d4e565b503d610dc1565b610857565b60207f7200000000000000000000000000000000000000000000000000000000000000917f4f6e6c79206465706c6f7965722063616e206368616e676520766572696669655f8201520152565b610e3e602160409261063a565b610e4781610de4565b0190565b610e609060208101905f818303910152610e31565b90565b15610e6a57565b610e726100b2565b62461bcd60e51b815280610e8860048201610e4b565b0390fd5b60207f6564206f6e206465766e6574206f7220746573746e6574000000000000000000917f4368616e67696e6720766572696669657273206973206f6e6c7920616c6c6f775f8201520152565b610ee6603760409261063a565b610eef81610e8c565b0190565b610f089060208101905f818303910152610ed9565b90565b15610f1257565b610f1a6100b2565b62461bcd60e51b815280610f3060048201610ef3565b0390fd5b610f3d9061026b565b90565b610f4981610f34565b03610f5057565b5f80fd5b90505190610f6182610f40565b565b90602082820312610f7c57610f79915f01610f54565b90565b6100bc565b610f8a906101bc565b90565b90565b610fa4610f9f610fa992610f8d565b61019d565b610192565b90565b610fb590610f90565b90565b60207f206e6f7420736574000000000000000000000000000000000000000000000000917f56657269666965722773207265706f7369746f727920616464726573732069735f8201520152565b611012602860409261063a565b61101b81610fb8565b0190565b6110349060208101905f818303910152611005565b90565b1561103e57565b6110466100b2565b62461bcd60e51b81528061105c6004820161101f565b0390fd5b9061107160018060a01b03916106fe565b9181191691161790565b611084906101a0565b90565b6110909061107b565b90565b90565b906110ab6110a66110b292611087565b611093565b8254611060565b9055565b61112f906110f6336110f06110ea7f000000000000000000000000000000000000000000000000000000000000000061026b565b9161026b565b14610e63565b6110fe6114d3565b80156111bd575b61110e90610f0b565b6020611119826101c8565b633fd66f22906111276100b2565b9485926107e8565b8252818061113f60048201610108565b03915afa80156111b85761116161118291611188945f9161118a575b50610f81565b61117b6111756111705f610fac565b61026b565b9161026b565b1415611037565b5f611096565b565b6111ab915060203d81116111b1575b6111a381836107bf565b810190610f63565b5f61115b565b503d611199565b610857565b5061110e6111c96115f4565b9050611105565b6111dc6111e191610614565b610153565b90565b6111ee90546111d0565b90565b5f9103126111fb57565b6100bc565b63ffffffff60e01b1690565b61121590611200565b9052565b50600890565b905090565b90565b61123090610a18565b9052565b9061124181602093611227565b0190565b60200190565b61126761126161125a83611219565b809461121f565b91611224565b5f915b8383106112775750505050565b61128d6112876001928451611234565b92611245565b9201919061126a565b634e487b7160e01b5f52602160045260245ffd5b600211156112b457565b611296565b906112c3826112aa565b565b6112ce906112b9565b90565b6112da906112c5565b9052565b906101206040611314936112f85f8201515f86019061120c565b61130a6020820151602086019061124b565b01519101906112d1565b565b61131f906100c4565b9052565b61132c9061026b565b9052565b90608080611388936113485f8201515f860190611323565b61135a6020820151602086019061120c565b61136c60408201516040860190611316565b61137e60608201516060860190611316565b0151910190611227565b565b9061018060606113d4936113a45f8201515f8601906112de565b6113b76020820151610140860190611227565b6113ca6040820151610160860190611316565b0151910190611330565b565b6113df90610a18565b9052565b6113ec90611200565b9052565b6114296114309461141e6102609498979561141361028086019a5f87019061138a565b6102208501906113d6565b610240830190610277565b01906113e3565b565b9061143b611e3a565b9061144d6114485f6111e4565b6101c8565b9063c4fa74e59092949390823b156114ca5761148761147c925f966114706100b2565b988997889687966107e8565b8652600486016113f0565b03915afa80156114c557611499575b50565b6114b8905f3d81116114be575b6114b081836107bf565b8101906111f1565b5f611496565b503d6114a6565b610857565b61079d565b5f90565b6114db6114cf565b506114e4611f9e565b80156114ee575b90565b506114f76120f9565b6114eb565b90565b61151361150e611518926114fc565b61019d565b6100c4565b90565b90565b61153261152d6115379261151b565b61019d565b6100c4565b90565b90565b61155161154c6115569261153a565b61019d565b6100c4565b90565b90565b61157061156b61157592611559565b61019d565b6100c4565b90565b90565b61158f61158a61159492611578565b61019d565b6100c4565b90565b90565b6115ae6115a96115b392611597565b61019d565b6100c4565b90565b90565b6115cd6115c86115d2926115b6565b61019d565b6100c4565b90565b90565b6115ec6115e76115f1926115d5565b61019d565b6100c4565b90565b6115fc6114cf565b504661161361160d62aa36a76114ff565b916100c4565b1480156116f4575b80156116d8575b80156116bc575b801561169f575b8015611682575b8015611665575b8015611648575b90565b504661165f61165962aa37dc6115d8565b916100c4565b14611645565b504661167c61167662066eee6115b9565b916100c4565b1461163e565b504661169961169362014a3461159a565b916100c4565b14611637565b50466116b66116b06201388261157b565b916100c4565b14611630565b50466116d26116cc61e70561155c565b916100c4565b14611629565b50466116ee6116e86112c161153d565b916100c4565b14611622565b504661170a61170461012c61151e565b916100c4565b1461161b565b9061172361171c6100b2565b92836107bf565b565b61172f6080611710565b90565b61173c6060611710565b90565b5f90565b67ffffffffffffffff81116117585760200290565b6107ab565b61176961176e91611743565b611710565b90565b369037565b906117946117838361175d565b9261178e8491611743565b90611771565b565b6117a06008611776565b90565b5f90565b6117af611732565b9060208080846117bd61173f565b8152016117c8611796565b8152016117d36117a3565b81525050565b6117e16117a7565b90565b5f90565b5f90565b6117f660a0611710565b90565b5f90565b6118056117ec565b90602080808080866118156117f9565b81520161182061173f565b81520161182b6117e8565b8152016118366117e8565b8152016118416117e4565b81525050565b61184f6117fd565b90565b61185a611725565b906020808080856118696117d9565b8152016118746117e4565b81520161187f6117e8565b81520161188a611847565b81525050565b611898611852565b90565b5f90565b90565b6118b66118b16118bb9261189f565b61019d565b6100c4565b90565b6118c860046118a2565b90565b6118d36118be565b90565b5f80fd5b5f80fd5b909392938483116118fe5784116118f9576001820201920390565b6118da565b6118d6565b91565b5f80fd5b61191381611200565b0361191a57565b5f80fd5b9050359061192b8261190a565b565b61193681610a18565b0361193d57565b5f80fd5b9050359061194e8261192d565b565b9092919261196561196082611743565b611710565b93602085920283019281841161199d57915b8383106119845750505050565b602080916119928486611941565b815201920191611977565b610438565b9080601f830112156119bd576119ba91600890611950565b90565b610430565b600211156119cc57565b5f80fd5b905035906119dd826119c2565b565b919061014083820312611a2d57611a26906119fa6060611710565b93611a07825f830161191e565b5f860152611a1882602083016119a2565b6020860152610120016119d0565b6040830152565b611906565b919060a083820312611aa257611a9b90611a4c60a0611710565b93611a59825f83016102e2565b5f860152611a6a826020830161191e565b6020860152611a7c82604083016100db565b6040860152611a8e82606083016100db565b6060860152608001611941565b6080830152565b611906565b919061022083820312611b0957611b0290611ac26080611710565b93611acf825f83016119df565b5f860152611ae1826101408301611941565b6020860152611af48261016083016100db565b604086015261018001611a32565b6060830152565b611906565b9061022082820312611b2857611b25915f01611aa7565b90565b6100bc565b90565b611b44611b3f611b4992611b2d565b61019d565b6100c4565b90565b611b566020611b30565b90565b611b61611b4c565b90565b90565b611b7b611b76611b8092611b64565b61019d565b6100c4565b90565b611b8e610100611b67565b90565b611bbb611bad611b9f611b59565b611ba7611b83565b90610cc5565b611bb5611b4c565b90610cc5565b90565b611bc86020611b30565b90565b611bd3611bbe565b90565b611bde611bbe565b90565b611c0b611bfd611bef611b91565b611bf7611bcb565b90610cc5565b611c05611bd6565b90610cc5565b90565b611c27611c196118cb565b611c21611be1565b90610cc5565b90565b611c346020611b30565b90565b611c3f611c2a565b90565b611c4a611c2a565b90565b611c55611c2a565b90565b611c60611c2a565b90565b611c6b611c2a565b90565b611cba611cac611c9e611c90611c82611c37565b611c8a611c42565b90610cc5565b611c98611c4d565b90610cc5565b611ca6611c58565b90610cc5565b611cb4611c63565b90610cc5565b90565b611cd6611cc8611c0e565b611cd0611c6e565b90610cc5565b90565b611ce390516100c4565b90565b611d21611d13611d05611cf7611b91565b611cff611bcb565b90610cc5565b611d0d611bd6565b90610cc5565b611d1b611c6e565b90610cc5565b90565b5f80fd5b67ffffffffffffffff8111611d4657611d426020916107a1565b0190565b6107ab565b90929192611d60611d5b82611d28565b611710565b93818552602085019082840111611d7c57611d7a926109da565b565b611d24565b611d8c913691611d4b565b90565b9190611da3905f610220850194019061138a565b565b905090565b90825f9392825e0152565b611dda611dd192602092611dc881610a14565b94858093611da5565b93849101611daa565b0190565b91611df0611dfc9493611df693611db5565b90611db5565b90611db5565b90565b90611e2c91939293611e20611e126100b2565b958693602085019384611dde565b908103825203836107bf565b565b611e3791611db5565b90565b611e42611890565b50611e4b61189b565b50611e75611e6d611e675f36611e5f6118cb565b9080926118de565b90611903565b810190611b0e565b9060205f611f43611f3285611f1e611f00611efa611ec8611ec2611eb4611ea66040611e9f611cbd565b9801611cd9565b611eae611ce6565b906106d9565b611ebc611c6e565b906106d9565b85610cc5565b93611eee611ee88936611ed9611c0e565b90611ee2611cbd565b926118de565b90611d81565b948891369091926118de565b90611d81565b611f2c611f0b612183565b611f136100b2565b9384918a8301611d8f565b8982018103825203836107bf565b91611dff565b611f3a6100b2565b91829182611e2e565b039060025afa15611f5b57611f585f516106fe565b90565b610857565b90565b611f77611f72611f7c92611f60565b61019d565b6100c4565b90565b90565b611f96611f91611f9b92611f7f565b61019d565b6100c4565b90565b611fa66114cf565b5046611fbc611fb6617a69611f63565b916100c4565b148015611fc7575b90565b5046611fde611fd862049919611f82565b916100c4565b14611fc4565b73f4e4fdca9d5d55e64525e314391996a15f7ec60090565b612005906101a0565b90565b90565b61201f61201a61202492612008565b61019d565b610192565b90565b61203361203991610192565b91610192565b019060018060a01b03821161204a57565b6106c5565b61207a612075612065612060611fe4565b611ffc565b61206f601e61200b565b90612027565b6101bc565b90565b6120885f8092611da5565b0190565b6120959061207d565b90565b906120aa6120a583611d28565b611710565b918252565b606090565b3d5f146120cf576120c43d612098565b903d5f602084013e5b565b6120d76120af565b906120cd565b6120f16120ec6120f692610f8d565b61019d565b6100c4565b90565b6121016114cf565b505f8061210c61204f565b6121146100b2565b8061211e8161208c565b03915afa61213461212d6120b4565b91156107ee565b8015612161575b61215c5761215990602061214e82610a14565b818301019101610816565b90565b505f90565b5061216b81610a14565b61217d6121775f6120dd565b916100c4565b1461213b565b61218b611890565b50612194611890565b9056fea2646970667358221220955e07fac7854aa812426cddf089d514b704f1757ebf3a9dd734bc5cdf93e0c564736f6c634300081e00336080604052346100305761001a610014610104565b9061017d565b610022610035565b611d886106768239611d8890f35b61003b565b60405190565b5f80fd5b601f801991011690565b634e487b7160e01b5f52604160045260245ffd5b906100679061003f565b810190811060018060401b0382111761007f57604052565b610049565b90610097610090610035565b928361005d565b565b5f80fd5b60018060a01b031690565b6100b19061009d565b90565b6100bd816100a8565b036100c457565b5f80fd5b905051906100d5826100b4565b565b91906040838203126100ff57806100f36100fc925f86016100c8565b936020016100c8565b90565b610099565b6101226123fe8038038061011781610084565b9283398101906100d7565b9091565b90565b90565b5f1b90565b61014561014061014a92610126565b61012c565b610129565b90565b6101565f610131565b90565b7fb19546dff01e856fb3f010c267a7b1c60363cf8a4664e21cc89c26224620214e90565b906101926101a09261018d61014d565b6101cc565b5061019b610159565b6101cc565b50565b5f90565b6101b090610129565b90565b906101bd906101a7565b5f5260205260405f2090565b90565b6101d46101a3565b506101e08183906102c1565b91826101ec575b505090565b6102026101fd6102079360016101b3565b6101c9565b6103b6565b505f806101e7565b151590565b9061021e906101a7565b5f5260205260405f2090565b90565b61024161023c6102469261009d565b61022a565b61009d565b90565b6102529061022d565b90565b61025e90610249565b90565b9061026b90610255565b5f5260205260405f2090565b9061028360ff9161012c565b9181191691161790565b6102969061020f565b90565b90565b906102b16102ac6102b89261028d565b610299565b8254610277565b9055565b5f0190565b6102c96101a3565b506102de6102d882849061041c565b1561020f565b5f146103665761030560016103005f6102f8818690610214565b018590610261565b61029c565b9061030e610449565b9061034b61034561033f7f2f8788117e7eff1d82e926ec794901d17c78024a50270940304540a733656f0d956101a7565b92610255565b92610255565b92610354610035565b8061035e816102bc565b0390a4600190565b50505f90565b6103759061022d565b90565b90565b61038f61038a6103949261009d565b61022a565b610378565b90565b6103ab6103a66103b092610378565b61012c565b610129565b90565b90565b906103e86103e26103dd6103d85f6103ed966103d06101a3565b50019461036c565b61037b565b610397565b916103b3565b61059d565b90565b5f1c90565b60ff1690565b61040761040c916103f0565b6103f5565b90565b61041990546103fb565b90565b610442915f61043761043d936104306101a3565b5082610214565b01610261565b61040f565b90565b5f90565b610451610445565b503390565b90565b5f5260205f2090565b634e487b7160e01b5f52603260045260245ffd5b5490565b61048381610476565b82101561049d57610495600191610459565b910201905f90565b610462565b1b90565b919060086104c19102916104bb5f19846104a2565b926104a2565b9181191691161790565b6104d4906103f0565b90565b91906104ed6104e86104f5936101a7565b6104cb565b9083546104a6565b9055565b908154916801000000000000000083101561052957826105219160016105279501815561047a565b906104d7565b565b610049565b5490565b9061053c906101a7565b5f5260205260405f2090565b906105545f199161012c565b9181191691161790565b61057261056d61057792610378565b61022a565b610378565b90565b90565b9061059261058d6105999261055e565b61057a565b8254610548565b9055565b6105a56101a3565b506105ba6105b4828490610640565b1561020f565b5f146105fa576105f06105f5926105dc6105d55f8501610456565b82906104f9565b60016105e95f850161052e565b9301610532565b61057d565b600190565b50505f90565b90565b61060f610614916103f0565b610600565b90565b6106219054610603565b90565b61063861063361063d92610126565b61022a565b610378565b90565b61065e916001610659926106526101a3565b5001610532565b610617565b61067061066a5f610624565b91610378565b14159056fe60806040526004361015610013575b610a11565b61001d5f3561016c565b806301ffc9a7146101675780631af6c43114610162578063248a9ca31461015d5780632505a3bd146101585780632ad82eea146101535780632f2ff15d1461014e57806336568abe14610149578063755e936f1461014457806381e4c9a31461013f57806384cf84e11461013a578063853b5d19146101355780639010d07c1461013057806391d148541461012b578063a217fddf14610126578063ada8f91914610121578063c5df91b51461011c578063ca0d535814610117578063ca15c87314610112578063d547741f1461010d578063e58378bb146101085763f2fde38b0361000e576109de565b6109a9565b610946565b610911565b6108bc565b610889565b610856565b610803565b610783565b61074d565b6106a5565b610672565b61063d565b61060a565b610525565b6104f1565b610457565b61041d565b6102c8565b610271565b6101f8565b60e01c90565b60405190565b5f80fd5b5f80fd5b5f80fd5b63ffffffff60e01b1690565b61019981610184565b036101a057565b5f80fd5b905035906101b182610190565b565b906020828203126101cc576101c9915f016101a4565b90565b61017c565b151590565b6101df906101d1565b9052565b91906101f6905f602085019401906101d6565b565b346102285761022461021361020e3660046101b3565b610a19565b61021b610172565b918291826101e3565b0390f35b610178565b90565b6102398161022d565b0361024057565b5f80fd5b9050359061025182610230565b565b9060208282031261026c57610269915f01610244565b90565b61017c565b346102a15761029d61028c610287366004610253565b610aa7565b610294610172565b918291826101e3565b0390f35b610178565b6102af9061022d565b9052565b91906102c6905f602085019401906102a6565b565b346102f8576102f46102e36102de366004610253565b610b04565b6102eb610172565b918291826102b3565b0390f35b610178565b5f80fd5b5f80fd5b601f801991011690565b634e487b7160e01b5f52604160045260245ffd5b9061032d90610305565b810190811067ffffffffffffffff82111761034757604052565b61030f565b9061035f610358610172565b9283610323565b565b67ffffffffffffffff811161037f5761037b602091610305565b0190565b61030f565b90825f939282370152565b909291926103a461039f82610361565b61034c565b938185526020850190828401116103c0576103be92610384565b565b610301565b9080601f830112156103e3578160206103e09335910161038f565b90565b6102fd565b90602082820312610418575f82013567ffffffffffffffff81116104135761041092016103c5565b90565b610180565b61017c565b3461044d576104496104386104333660046103e8565b610b32565b610440610172565b918291826101e3565b0390f35b610178565b5f0190565b346104855761046f61046a3660046103e8565b610d83565b610477610172565b8061048181610452565b0390f35b610178565b60018060a01b031690565b61049e9061048a565b90565b6104aa81610495565b036104b157565b5f80fd5b905035906104c2826104a1565b565b91906040838203126104ec57806104e06104e9925f8601610244565b936020016104b5565b90565b61017c565b346105205761050a6105043660046104c4565b90610db8565b610512610172565b8061051c81610452565b0390f35b610178565b346105545761053e6105383660046104c4565b90610dc4565b610546610172565b8061055081610452565b0390f35b610178565b67ffffffffffffffff811161057757610573602091610305565b0190565b61030f565b9092919261059161058c82610559565b61034c565b938185526020850190828401116105ad576105ab92610384565b565b610301565b9080601f830112156105d0578160206105cd9335910161057c565b90565b6102fd565b90602082820312610605575f82013567ffffffffffffffff8111610600576105fd92016105b2565b90565b610180565b61017c565b346106385761062261061d3660046105d5565b610f84565b61062a610172565b8061063481610452565b0390f35b610178565b3461066d576106696106586106533660046105d5565b610f8f565b610660610172565b918291826101e3565b0390f35b610178565b346106a05761068a610685366004610253565b6110cb565b610692610172565b8061069c81610452565b0390f35b610178565b346106d3576106bd6106b83660046105d5565b611184565b6106c5610172565b806106cf81610452565b0390f35b610178565b90565b6106e4816106d8565b036106eb57565b5f80fd5b905035906106fc826106db565b565b9190604083820312610726578061071a610723925f8601610244565b936020016106ef565b90565b61017c565b61073490610495565b9052565b919061074b905f6020850194019061072b565b565b3461077e5761077a6107696107633660046106fe565b906111ac565b610771610172565b91829182610738565b0390f35b610178565b346107b4576107b061079f6107993660046104c4565b906111ea565b6107a7610172565b918291826101e3565b0390f35b610178565b5f9103126107c357565b61017c565b90565b5f1b90565b6107e46107df6107e9926107c8565b6107cb565b61022d565b90565b6107f55f6107d0565b90565b6108006107ec565b90565b34610833576108133660046107b9565b61082f61081e6107f8565b610826610172565b918291826102b3565b0390f35b610178565b906020828203126108515761084e915f016104b5565b90565b61017c565b346108845761086e610869366004610838565b611213565b610876610172565b8061088081610452565b0390f35b610178565b346108b7576108a161089c366004610253565b61135c565b6108a9610172565b806108b381610452565b0390f35b610178565b346108ea576108d46108cf3660046103e8565b611413565b6108dc610172565b806108e681610452565b0390f35b610178565b6108f8906106d8565b9052565b919061090f905f602085019401906108ef565b565b346109415761093d61092c610927366004610253565b611422565b610934610172565b918291826108fc565b0390f35b610178565b346109755761095f6109593660046104c4565b90611473565b610967610172565b8061097181610452565b0390f35b610178565b7fb19546dff01e856fb3f010c267a7b1c60363cf8a4664e21cc89c26224620214e90565b6109a661097a565b90565b346109d9576109b93660046107b9565b6109d56109c461099e565b6109cc610172565b918291826102b3565b0390f35b610178565b34610a0c576109f66109f1366004610838565b61149b565b6109fe610172565b80610a0881610452565b0390f35b610178565b5f80fd5b5f90565b610a21610a15565b5080610a3c610a36635a05180f60e01b610184565b91610184565b14908115610a49575b5090565b610a5391506114d8565b5f610a45565b610a629061022d565b90565b90610a6f90610a59565b5f5260205260405f2090565b5f1c90565b60ff1690565b610a92610a9791610a7b565b610a80565b90565b610aa49054610a86565b90565b610abe610ac391610ab6610a15565b506003610a65565b610a9a565b90565b5f90565b90610ad490610a59565b5f5260205260405f2090565b90565b610aef610af491610a7b565b610ae0565b90565b610b019054610ae3565b90565b6001610b1c610b2292610b15610ac6565b505f610aca565b01610af7565b90565b90565b60200190565b5190565b610b66610b6b91610b41610a15565b50610b4d600491610b25565b610b5f610b5982610b2e565b91610b28565b2090610a65565b610a9a565b90565b610b8790610b82610b7d61097a565b611518565b610ce8565b565b60209181520190565b5f7f4b657920697320616c72656164792076616c6964000000000000000000000000910152565b610bc66014602092610b89565b610bcf81610b92565b0190565b610be89060208101905f818303910152610bb9565b90565b15610bf257565b610bfa610172565b62461bcd60e51b815280610c1060048201610bd3565b0390fd5b90610c2060ff916107cb565b9181191691161790565b610c33906101d1565b90565b90565b90610c4e610c49610c5592610c2a565b610c36565b8254610c14565b9055565b90565b610c70610c6b610c759261048a565b610c59565b61048a565b90565b610c8190610c5c565b90565b610c8d90610c78565b90565b5190565b90825f9392825e0152565b610cbe610cc7602093610ccc93610cb581610c90565b93848093610b89565b95869101610c94565b610305565b0190565b610ce59160208201915f818403910152610c9f565b90565b610d3e610cf482610b25565b610d06610d0082610b2e565b91610b28565b20610d2c610d27610d21610d1c60048590610a65565b610a9a565b156101d1565b610beb565b610d396001916004610a65565b610c39565b33610d7e610d6c7fcbfa55581c230aeb174d969838d927cdd297755dfb967a33134312f1377ee71d92610c84565b92610d75610172565b91829182610cd0565b0390a2565b610d8c90610b6e565b565b90610da991610da4610d9f82610b04565b611518565b610dab565b565b90610db59161152c565b50565b90610dc291610d8e565b565b9080610ddf610dd9610dd461156f565b610495565b91610495565b03610df057610ded9161157c565b50565b5f63334bd91960e11b815280610e0860048201610452565b0390fd5b610e2590610e20610e1b61097a565b611518565b610efb565b565b5f7f43616e6e6f74207265766f6b6520696e76616c6964206b657900000000000000910152565b610e5b6019602092610b89565b610e6481610e27565b0190565b610e7d9060208101905f818303910152610e4e565b90565b15610e8757565b610e8f610172565b62461bcd60e51b815280610ea560048201610e68565b0390fd5b60209181520190565b610ed1610eda602093610edf93610ec881610b2e565b93848093610ea9565b95869101610c94565b610305565b0190565b610ef89160208201915f818403910152610eb2565b90565b610f3f81610f11610f0b82610b2e565b91610b28565b20610f2e610f29610f2460028490610a65565b610a9a565b610e80565b610f3a5f916002610a65565b610c39565b33610f7f610f6d7f66e43f8252a3257fe010a4fd6ae50f57624762cc64a6eceadb04b18cfdefac7d92610c84565b92610f76610172565b91829182610ee3565b0390a2565b610f8d90610e0c565b565b610fbb610fc091610f9e610a15565b50600290610fb4610fae82610b2e565b91610b28565b2090610a65565b610a9a565b90565b610fdc90610fd7610fd261097a565b611518565b611060565b565b5f7f496d616765494420697320616c726561647920737570706f7274656400000000910152565b611012601c602092610b89565b61101b81610fde565b0190565b6110349060208101905f818303910152611005565b90565b1561103e57565b611046610172565b62461bcd60e51b81528061105c6004820161101f565b0390fd5b61107a61107561106f83610aa7565b156101d1565b611037565b611090600161108b60038490610a65565b610c39565b6110c67f010120d82c0c66b257c0ea628d405b1d3c2d37bb8dd9141f6c5c12cb0375c572916110bd610172565b918291826102b3565b0390a1565b6110d490610fc3565b565b6110ef906110ea6110e561097a565b611518565b6110f1565b565b61113f8161110761110182610b2e565b91610b28565b2061112d61112861112261111d60028590610a65565b610a9a565b156101d1565b610beb565b61113a6001916002610a65565b610c39565b3361117f61116d7f0a249d4766726d36cb6d6ac22cf998dc9fc02bb4ff9fda73ec1e3061c8a1db0992610c84565b92611176610172565b91829182610ee3565b0390a2565b61118d906110d6565b565b5f90565b9061119d90610a59565b5f5260205260405f2090565b90565b906111cc6111c76111d1936111bf61118f565b506001611193565b6111a9565b61160e565b90565b906111de90610c84565b5f5260205260405f2090565b611210915f61120561120b936111fe610a15565b5082610aca565b016111d4565b610a9a565b90565b6112249061121f6107ec565b610db8565b61123661122f6107ec565b3390610dc4565b565b6112519061124c61124761097a565b611518565b6112fb565b565b60207f4400000000000000000000000000000000000000000000000000000000000000917f43616e6e6f74207265766f6b6520756e737570706f7274656420496d616765495f8201520152565b6112ad6021604092610b89565b6112b681611253565b0190565b6112cf9060208101905f8183039101526112a0565b90565b156112d957565b6112e1610172565b62461bcd60e51b8152806112f7600482016112ba565b0390fd5b61130c61130782610aa7565b6112d2565b6113215f61131c60038490610a65565b610c39565b6113577f4072861add20da436ef0a8274b90d102aea17b603f972cc8196d51f1a5d561799161134e610172565b918291826102b3565b0390a1565b61136590611238565b565b6113809061137b61137661097a565b611518565b611382565b565b6113ce61138e82610b25565b6113a061139a82610b2e565b91610b28565b206113bd6113b86113b360048490610a65565b610a9a565b610e80565b6113c95f916004610a65565b610c39565b3361140e6113fc7f69c40cdda8ad6e074bf320a4a76804a6652eb5231bda91b690dcb98010b2707992610c84565b92611405610172565b91829182610cd0565b0390a2565b61141c90611367565b565b5f90565b61144161143c6114469261143461141e565b506001611193565b6111a9565b611646565b90565b906114649161145f61145a82610b04565b611518565b611466565b565b906114709161157c565b50565b9061147d91611449565b565b61149361148e611498926107c8565b610c59565b6106d8565b90565b6114d6906114c96114bc6114ad61097a565b6114b65f61147f565b906111ac565b6114c461097a565b611473565b6114d161097a565b610db8565b565b6114e0610a15565b50806114fb6114f5637965db0b60e01b610184565b91610184565b14908115611508575b5090565b6115129150611665565b5f611504565b61152a9061152461156f565b906116ae565b565b611534610a15565b506115408183906116e9565b918261154c575b505090565b61156261155d611567936001611193565b6111a9565b6117d8565b505f80611547565b61157761118f565b503390565b611584610a15565b50611590818390611812565b918261159c575b505090565b6115b26115ad6115b7936001611193565b6111a9565b6118b3565b505f80611597565b90565b6115d66115d16115db926106d8565b610c59565b6106d8565b90565b6115ea6115ef91610a7b565b6115c2565b90565b61160661160161160b926106d8565b610c59565b61048a565b90565b6116396116346116439361162f5f61163e9561162861118f565b50016115bf565b611960565b6115de565b6115f2565b610c78565b90565b61165d5f6116629261165661141e565b50016115bf565b611981565b90565b61166d610a15565b506116876116816301ffc9a760e01b610184565b91610184565b1490565b9160206116ac9294936116a560408201965f83019061072b565b01906102a6565b565b906116c36116bd8383906111ea565b156101d1565b6116cb575050565b6116e55f92839263e2517d3f60e01b84526004840161168b565b0390fd5b6116f1610a15565b506117066117008284906111ea565b156101d1565b5f1461178e5761172d60016117285f611720818690610aca565b0185906111d4565b610c39565b9061173661156f565b9061177361176d6117677f2f8788117e7eff1d82e926ec794901d17c78024a50270940304540a733656f0d95610a59565b92610c84565b92610c84565b9261177c610172565b8061178681610452565b0390a4600190565b50505f90565b61179d90610c5c565b90565b6117b46117af6117b99261048a565b610c59565b6106d8565b90565b6117d06117cb6117d5926106d8565b6107cb565b61022d565b90565b9061180a6118046117ff6117fa5f61180f966117f2610a15565b500194611794565b6117a0565b6117bc565b916115bf565b611aab565b90565b61181a610a15565b506118268183906111ea565b5f146118ad5761184c5f6118475f61183f818690610aca565b0185906111d4565b610c39565b9061185561156f565b9061189261188c6118867ff6391f5c32d9c69d2a47ea670b442974b53935d1edc7fd64eb21e047a839171b95610a59565b92610c84565b92610c84565b9261189b610172565b806118a581610452565b0390a4600190565b50505f90565b906118e56118df6118da6118d55f6118ea966118cd610a15565b500194611794565b6117a0565b6117bc565b916115bf565b611c17565b90565b634e487b7160e01b5f52603260045260245ffd5b5490565b5f5260205f2090565b61191781611901565b82101561193157611929600191611905565b910201905f90565b6118ed565b1c90565b61194a90600861194f9302611936565b610ae0565b90565b9061195d915461193a565b90565b61197e915f61197892611971610ac6565b500161190e565b90611952565b90565b5f6119959161198e61141e565b5001611901565b90565b90565b5f5260205f2090565b5490565b6119b1816119a4565b8210156119cb576119c360019161199b565b910201905f90565b6118ed565b1b90565b919060086119ef9102916119e95f19846119d0565b926119d0565b9181191691161790565b611a0290610a7b565b90565b9190611a1b611a16611a2393610a59565b6119f9565b9083546119d4565b9055565b9081549168010000000000000000831015611a575782611a4f916001611a55950181556119a8565b90611a05565b565b61030f565b90611a6690610a59565b5f5260205260405f2090565b90611a7e5f19916107cb565b9181191691161790565b90565b90611aa0611a9b611aa7926115c2565b611a88565b8254611a72565b9055565b611ab3610a15565b50611ac8611ac2828490611d1d565b156101d1565b5f14611b0857611afe611b0392611aea611ae35f8501611998565b8290611a27565b6001611af75f8501611901565b9301611a5c565b611a8b565b600190565b50505f90565b90565b611b1d611b2291610a7b565b611b0e565b90565b611b2f9054611b11565b90565b90565b611b49611b44611b4e92611b32565b610c59565b6106d8565b90565b634e487b7160e01b5f52601160045260245ffd5b611b74611b7a919392936106d8565b926106d8565b8203918211611b8557565b611b51565b634e487b7160e01b5f52603160045260245ffd5b611bb091611baa610ac6565b91611a05565b565b611bbb816119a4565b8015611bdc576001900390611bd9611bd383836119a8565b90611b9e565b55565b611b8a565b9190611bf7611bf2611bff936115c2565b611a88565b9083546119d4565b9055565b611c1591611c0f61141e565b91611be1565b565b611c1f610a15565b50611c36611c31600183018490611a5c565b611b25565b9081611c4a611c445f61147f565b916106d8565b14155f14611d1657611cc8926001611cc39284611c715f96611c6b85611b35565b90611b65565b611c8e611c7f888501611901565b611c8886611b35565b90611b65565b81611ca1611c9b836106d8565b916106d8565b03611ccd575b505050611cbd611cb8868301611998565b611bb2565b01611a5c565b611c03565b600190565b611d0e92611d00611cec611ce6611d09948c890161190e565b90611952565b93611cfa85918c890161190e565b90611a05565b91858501611a5c565b611a8b565b5f8080611ca7565b5050505f90565b611d3b916001611d3692611d2f610a15565b5001611a5c565b611b25565b611d4d611d475f61147f565b916106d8565b14159056fea26469706673582212203451d419b801cf4c92049626839a2cc51fc8803b90f7090d3a01e7d3c93f05d264736f6c634300081e003360e06040523461006557610019610014610136565b610206565b61002161006a565b61121f6104f382396080518181816101b101526108ea015260a05181818160910152610785015260c051818181610389015281816103f30152610f16015261121f90f35b610070565b60405190565b5f80fd5b601f801991011690565b634e487b7160e01b5f52604160045260245ffd5b9061009c90610074565b810190811060018060401b038211176100b457604052565b61007e565b906100cc6100c561006a565b9283610092565b565b5f80fd5b60018060a01b031690565b6100e6906100d2565b90565b6100f2906100dd565b90565b6100fe816100e9565b0361010557565b5f80fd5b90505190610116826100f5565b565b906020828203126101315761012e915f01610109565b90565b6100ce565b6101546128eb80380380610149816100b9565b928339810190610118565b90565b5f0190565b90565b63ffffffff60e01b1690565b60e01b90565b61018561018061018a9261015c565b61016b565b61015f565b90565b61019a63deafbeef610171565b90565b6101a69061015f565b9052565b91906101bd905f6020850194019061019d565b565b6101c761006a565b3d5f823e3d90fd5b90565b6101e66101e16101eb926100d2565b6101cf565b6100d2565b90565b6101f7906101d2565b90565b610203906101ee565b90565b61020f90610298565b6102176103bb565b61027c5761022361018d565b61022b61006a565b906111d9820182811060018060401b03821117610277578291610255916111d961171285396101aa565b03905ff0801561027257610268906101fa565b60a0526001608052565b6101bf565b61007e565b5f633d23e4d160e11b81528061029460048201610157565b0390fd5b60c052565b5f90565b90565b90565b6102bb6102b66102c0926102a4565b6101cf565b6102a1565b90565b90565b6102da6102d56102df926102c3565b6101cf565b6102a1565b90565b90565b6102f96102f46102fe926102e2565b6101cf565b6102a1565b90565b90565b61031861031361031d92610301565b6101cf565b6102a1565b90565b90565b61033761033261033c92610320565b6101cf565b6102a1565b90565b90565b61035661035161035b9261033f565b6101cf565b6102a1565b90565b90565b61037561037061037a9261035e565b6101cf565b6102a1565b90565b90565b61039461038f6103999261037d565b6101cf565b6102a1565b90565b90565b6103b36103ae6103b89261039c565b6101cf565b6102a1565b90565b6103c361029d565b50466103d86103d260016102a7565b916102a1565b1480156104d7575b80156104bc575b80156104a0575b8015610484575b8015610468575b801561044c575b8015610430575b8015610414575b90565b504661042a61042461e70861039f565b916102a1565b14610411565b504661044661044061a4ba610380565b916102a1565b1461040a565b504661046261045c61a4b1610361565b916102a1565b14610403565b504661047e610478612105610342565b916102a1565b146103fc565b504661049a6104946101e0610323565b916102a1565b146103f5565b50466104b66104b0610144610304565b916102a1565b146103ee565b50466104d16104cb60896102e5565b916102a1565b146103e7565b50466104ec6104e6600a6102c6565b916102a1565b146103e056fe60806040526004361015610013575b6103e0565b61001d5f3561006c565b806308c84e70146100675780633fd66f22146100625780639a44ea841461005d578063c4fa74e5146100585763f4cbae940361000e576103ab565b610350565b610230565b61017a565b610117565b60e01c90565b60405190565b5f80fd5b5f80fd5b5f91031261008a57565b61007c565b7f000000000000000000000000000000000000000000000000000000000000000090565b60018060a01b031690565b90565b6100d56100d06100da926100b3565b6100be565b6100b3565b90565b6100e6906100c1565b90565b6100f2906100dd565b90565b6100fe906100e9565b9052565b9190610115905f602085019401906100f5565b565b3461014757610127366004610080565b61014361013261008f565b61013a610072565b91829182610102565b0390f35b610078565b610155906100dd565b90565b6101619061014c565b9052565b9190610178905f60208501940190610158565b565b346101aa5761018a366004610080565b6101a66101956103e8565b61019d610072565b91829182610165565b0390f35b610078565b7f000000000000000000000000000000000000000000000000000000000000000090565b634e487b7160e01b5f52602160045260245ffd5b600211156101f157565b6101d3565b90610200826101e7565b565b61020b906101f6565b90565b61021790610202565b9052565b919061022e905f6020850194019061020e565b565b3461026057610240366004610080565b61025c61024b6101af565b610253610072565b9182918261021b565b0390f35b610078565b5f80fd5b90816102209103126102785790565b610265565b90565b6102898161027d565b0361029057565b5f80fd5b905035906102a182610280565b565b6102ac906100b3565b90565b6102b8816102a3565b036102bf57565b5f80fd5b905035906102d0826102af565b565b63ffffffff60e01b1690565b6102e7816102d2565b036102ee57565b5f80fd5b905035906102ff826102de565b565b6102808183031261034657610318825f8301610269565b9261034361032a846102208501610294565b936103398161024086016102c3565b93610260016102f2565b90565b61007c565b5f0190565b346103825761036c610363366004610301565b92919091610758565b610374610072565b8061037e8161034b565b0390f35b610078565b7f000000000000000000000000000000000000000000000000000000000000000090565b346103db576103bb366004610080565b6103d76103c6610387565b6103ce610072565b91829182610165565b0390f35b610078565b5f80fd5b5f90565b6103f06103e4565b507f000000000000000000000000000000000000000000000000000000000000000090565b5f80fd5b601f801991011690565b634e487b7160e01b5f52604160045260245ffd5b9061044190610419565b810190811067ffffffffffffffff82111761045b57604052565b610423565b9061047361046c610072565b9283610437565b565b5f80fd5b67ffffffffffffffff811161048e5760200290565b610423565b5f80fd5b909291926104ac6104a782610479565b610460565b9360208592028301928184116104e457915b8383106104cb5750505050565b602080916104d98486610294565b8152019201916104be565b610493565b9080601f830112156105045761050191600890610497565b90565b610475565b6002111561051357565b5f80fd5b9050359061052482610509565b565b9190610140838203126105745761056d906105416060610460565b9361054e825f83016102f2565b5f86015261055f82602083016104e9565b602086015261012001610517565b6040830152565b610415565b90565b61058581610579565b0361058c57565b5f80fd5b9050359061059d8261057c565b565b919060a08382031261060f57610608906105b960a0610460565b936105c6825f83016102c3565b5f8601526105d782602083016102f2565b60208601526105e98260408301610590565b60408601526105fb8260608301610590565b6060860152608001610294565b6080830152565b610415565b9190610220838203126106765761066f9061062f6080610460565b9361063c825f8301610526565b5f86015261064e826101408301610294565b6020860152610661826101608301610590565b60408601526101800161059f565b6060830152565b610415565b610686903690610614565b90565b610694903690610526565b90565b356106a181610280565b90565b5f80fd5b60e01b90565b5f9103126106b857565b61007c565b5190565b60209181520190565b90825f9392825e0152565b6106f46106fd602093610702936106eb816106bd565b938480936106c1565b958691016106ca565b610419565b0190565b61070f9061027d565b9052565b60409061073f6107346107469597969460608401908482035f8601526106d5565b966020830190610706565b0190610706565b565b610750610072565b3d5f823e3d90fd5b91610780919361076f61076a8561067b565b6108d3565b61077b8492919261067b565b610deb565b6107a97f00000000000000000000000000000000000000000000000000000000000000006100e9565b9063ab750e75916107d06101406107c96107c45f8601610689565b61110b565b9301610697565b93813b15610843575f936108006107f5926107e9610072565b978896879586956106a8565b855260048501610713565b03915afa801561083e57610812575b50565b610831905f3d8111610837575b6108298183610437565b8101906106ae565b5f61080f565b503d61081f565b610748565b6106a4565b60209181520190565b5f7f496e76616c69642070726f6f66206d6f64650000000000000000000000000000910152565b6108856012602092610848565b61088e81610851565b0190565b6108a79060208101905f818303910152610878565b90565b156108b157565b6108b9610072565b62461bcd60e51b8152806108cf60048201610892565b0390fd5b6108e25f61091a9201516111d1565b61091461090e7f00000000000000000000000000000000000000000000000000000000000000006101f6565b916101f6565b146108aa565b565b61092690516102a3565b90565b5f7f496e76616c69642070726f766572000000000000000000000000000000000000910152565b61095d600e602092610848565b61096681610929565b0190565b61097f9060208101905f818303910152610950565b90565b1561098957565b610991610072565b62461bcd60e51b8152806109a76004820161096a565b0390fd5b6109b590516102d2565b90565b5f7f496e76616c69642073656c6563746f7200000000000000000000000000000000910152565b6109ec6010602092610848565b6109f5816109b8565b0190565b610a0e9060208101905f8183039101526109df565b90565b15610a1857565b610a20610072565b62461bcd60e51b815280610a36600482016109f9565b0390fd5b610a449051610579565b90565b5f7f496e76616c696420636861696e20696400000000000000000000000000000000910152565b610a7b6010602092610848565b610a8481610a47565b0190565b610a9d9060208101905f818303910152610a6e565b90565b15610aa757565b610aaf610072565b62461bcd60e51b815280610ac560048201610a88565b0390fd5b60207f2066757475726500000000000000000000000000000000000000000000000000917f496e76616c696420626c6f636b206e756d6265723a20626c6f636b2066726f6d5f8201520152565b610b236027604092610848565b610b2c81610ac9565b0190565b610b459060208101905f818303910152610b16565b90565b15610b4f57565b610b57610072565b62461bcd60e51b815280610b6d60048201610b30565b0390fd5b90565b610b88610b83610b8d92610b71565b6100be565b610579565b90565b610b9b610100610b74565b90565b634e487b7160e01b5f52601160045260245ffd5b610bc1610bc791939293610579565b92610579565b8201809211610bd257565b610b9e565b60207f6f6c640000000000000000000000000000000000000000000000000000000000917f496e76616c696420626c6f636b206e756d6265723a20626c6f636b20746f6f205f8201520152565b610c316023604092610848565b610c3a81610bd7565b0190565b610c539060208101905f818303910152610c24565b90565b15610c5d57565b610c65610072565b62461bcd60e51b815280610c7b60048201610c3e565b0390fd5b610c89905161027d565b90565b5f7f496e76616c696420626c6f636b20686173680000000000000000000000000000910152565b610cc06012602092610848565b610cc981610c8c565b0190565b610ce29060208101905f818303910152610cb3565b90565b15610cec57565b610cf4610072565b62461bcd60e51b815280610d0a60048201610ccd565b0390fd5b151590565b610d1c81610d0e565b03610d2357565b5f80fd5b90505190610d3482610d13565b565b90602082820312610d4f57610d4c915f01610d27565b90565b61007c565b9190610d67905f60208501940190610706565b565b5f7f556e737570706f727465642043616c6c47756573744964000000000000000000910152565b610d9d6017602092610848565b610da681610d69565b0190565b610dbf9060208101905f818303910152610d90565b90565b15610dc957565b610dd1610072565b62461bcd60e51b815280610de760048201610daa565b0390fd5b610e46610f6d93610e1f602094610e19610e13610e0d5f60608901510161091c565b926102a3565b916102a3565b14610982565b610e40610e3a610e34866060870151016109ab565b926102d2565b916102d2565b14610a11565b610e71610e596040606084015101610a3a565b610e6b610e6546610579565b91610579565b14610aa0565b610e9b610e8360608084015101610a3a565b610e95610e8f43610579565b91610579565b10610b48565b610ed7610ebe610eb060608085015101610a3a565b610eb8610b90565b90610bb2565b610ed0610eca43610579565b91610579565b1015610c56565b610f11610eea6080606084015101610c7f565b610f0b610f05610eff60608087015101610a3a565b4061027d565b9161027d565b14610ce5565b610f3a7f000000000000000000000000000000000000000000000000000000000000000061014c565b610f62610f4d84631af6c4319401610c7f565b92610f56610072565b958694859384936106a8565b835260048301610d54565b03915afa8015610fb857610f88915f91610f8a575b50610dc2565b565b610fab915060203d8111610fb1575b610fa38183610437565b810190610d36565b5f610f82565b503d610f99565b610748565b606090565b610fcc90516101f6565b90565b90565b610fde610fe3916102d2565b610fcf565b9052565b50600890565b905090565b90565b610ffe9061027d565b9052565b9061100f81602093610ff5565b0190565b60200190565b61103561102f61102883610fe7565b8094610fed565b91610ff2565b5f915b8383106110455750505050565b61105b6110556001928451611002565b92611013565b92019190611038565b600481611078611080936101009695610fd2565b018092611019565b0190565b634e487b7160e01b5f52603260045260245ffd5b906110a282610fe7565b8110156110b0576020020190565b611084565b90565b6110cc6110c76110d1926110b5565b6100be565b610579565b90565b90565b6110e36110e89161027d565b6110d4565b9052565b6004816110ff6111079360209695610fd2565b0180926110d7565b0190565b611113610fbd565b5061112060408201610fc2565b61113361112d60016101f6565b916101f6565b145f146111905761118d6111675f61116061115b6020860151611155846110b8565b90611098565b610c7f565b93016109ab565b61117e611172610072565b938492602084016110ec565b60208201810382520382610437565b90565b6111ca60206111a05f84016109ab565b920151916111bb6111af610072565b93849260208401611064565b60208201810382520382610437565b90565b5f90565b60406111e6916111df6111cd565b5001610fc2565b9056fea26469706673582212206adf33363e8dd2e34d702f126a7ed9f1d37e3d49fba0367e182b54f56901b1c964736f6c634300081e003360a06040523461004c57610019610014610106565b610127565b610021610051565b6110ac61012d82396080518181816091015281816105960152818161079201526108b101526110ac90f35b610057565b60405190565b5f80fd5b601f801991011690565b634e487b7160e01b5f52604160045260245ffd5b906100839061005b565b810190811060018060401b0382111761009b57604052565b610065565b906100b36100ac610051565b9283610079565b565b5f80fd5b63ffffffff60e01b1690565b6100ce816100b9565b036100d557565b5f80fd5b905051906100e6826100c5565b565b90602082820312610101576100fe915f016100d9565b90565b6100b5565b6101246111d980380380610119816100a0565b9283398101906100e8565b90565b60805256fe60806040526004361015610013575b6103f7565b61001d5f3561006c565b8063053c238d146100675780631599ead5146100625780633a115bb11461005d57806366cf0e4b146100585763ab750e750361000e576103c0565b6102e9565b610287565b61016b565b6100e1565b60e01c90565b60405190565b5f80fd5b5f80fd5b5f91031261008a57565b61007c565b7f000000000000000000000000000000000000000000000000000000000000000090565b63ffffffff60e01b1690565b6100c8906100b3565b9052565b91906100df905f602085019401906100bf565b565b34610111576100f1366004610080565b61010d6100fc61008f565b610104610072565b918291826100cc565b0390f35b610078565b5f80fd5b5f80fd5b9081604091031261012c5790565b61011a565b90602082820312610161575f82013567ffffffffffffffff811161015c57610159920161011e565b90565b610116565b61007c565b5f0190565b346101995761018361017e366004610131565b61045b565b61018b610072565b8061019581610166565b0390f35b610078565b90565b6101aa8161019e565b036101b157565b5f80fd5b905035906101c2826101a1565b565b906020828203126101dd576101da915f016101b5565b90565b61007c565b5190565b60209181520190565b90825f9392825e0152565b601f801991011690565b61022361022c6020936102319361021a816101e2565b938480936101e6565b958691016101ef565b6101fa565b0190565b61023e9061019e565b9052565b9061026c90602080610261604084015f8701518582035f870152610204565b940151910190610235565b90565b6102849160208201915f818403910152610242565b90565b346102b7576102b36102a261029d3660046101c4565b610588565b6102aa610072565b9182918261026f565b0390f35b610078565b91906040838203126102e457806102d86102e1925f86016101b5565b936020016101b5565b90565b61007c565b3461031a576103166103056102ff3660046102bc565b90610601565b61030d610072565b9182918261026f565b0390f35b610078565b5f80fd5b5f80fd5b5f80fd5b909182601f830112156103655781359167ffffffffffffffff831161036057602001926001830284011161035b57565b610327565b610323565b61031f565b9190916060818403126103bb575f8101359167ffffffffffffffff83116103b65761039a846103b394840161032b565b9390946103aa81602086016101b5565b936040016101b5565b90565b610116565b61007c565b346103f2576103dc6103d336600461036a565b92919091610627565b6103e4610072565b806103ee81610166565b0390f35b610078565b5f80fd5b5f80fd5b5f80fd5b5f80fd5b903590600160200381360303821215610449570180359067ffffffffffffffff82116104445760200191600182023603831361043f57565b610403565b6103ff565b6103fb565b35610458816101a1565b90565b61048090602061047a610471835f810190610407565b9290930161044e565b91610790565b565b634e487b7160e01b5f52604160045260245ffd5b906104a0906101fa565b810190811067ffffffffffffffff8211176104ba57604052565b610482565b906104d26104cb610072565b9283610496565b565b6104de60406104bf565b90565b606090565b5f90565b6104f26104d4565b90602080836104ff6104e1565b81520161050a6104e6565b81525050565b6105186104ea565b90565b90565b61052a61052f916100b3565b61051b565b9052565b90565b6105426105479161019e565b610533565b9052565b60048161055e610566936020969561051e565b018092610536565b0190565b61057460406104bf565b90565b52565b906105849061019e565b9052565b610590610510565b506105fe7f0000000000000000000000000000000000000000000000000000000000000000916105e181936105d26105c6610072565b9586926020840161054b565b60208201810382520384610496565b6105f56105ec61056a565b935f8501610577565b6020830161057a565b90565b61061a6106249261061f92610614610510565b50610a9d565b610dee565b610588565b90565b6106386106439461063d9294610a9d565b610dee565b91610790565b565b90565b90565b90565b61066261065d61066792610645565b61064b565b610648565b90565b5f80fd5b5f80fd5b9093929384831161069257841161068d576001820201920390565b61066e565b61066a565b5090565b1b90565b906106ad6106b49183610697565b91356100b3565b90600481106106c2575b5090565b6106da9063ffffffff60e01b9060040360080261069b565b165f6106be565b9160206107029294936106fb60408201965f8301906100bf565b01906100bf565b565b5f80fd5b67ffffffffffffffff8111610726576107226020916101fa565b0190565b610482565b90825f939282370152565b9092919261074b61074682610708565b6104bf565b93818552602085019082840111610767576107659261072b565b565b610704565b610777913691610736565b90565b60200190565b61078c81602093610536565b0190565b7f00000000000000000000000000000000000000000000000000000000000000006107e36107dd6107d86107d285876004906107cc5f9261064e565b92610672565b9061069f565b6100b3565b916100b3565b0361088d5761083d61084c61081561080f61086a956108649590610807600461064e565b908092610672565b9061076c565b610827610821826101e2565b9161077a565b2094610831610072565b92839160208301610780565b60208201810382520382610496565b61085e610858826101e2565b9161077a565b2061019e565b9161019e565b0361087157565b5f63439cc0cd60e01b81528061088960048201610166565b0390fd5b6108af916108a991906004906108a35f9261064e565b92610672565b9061069f565b7f0000000000000000000000000000000000000000000000000000000000000000906108eb5f928392632e2ce35360e21b8452600484016106e1565b0390fd5b6108f960a06104bf565b90565b61090660406104bf565b90565b5f90565b5f90565b6109196108fc565b9060208083610926610909565b81520161093161090d565b81525050565b61093f610911565b90565b61094a6108ef565b906020808080808661095a6104e6565b8152016109656104e6565b815201610970610937565b81520161097b6104e6565b8152016109866104e6565b81525050565b610994610942565b90565b90565b5f1b90565b6109b36109ae6109b892610997565b61099a565b61019e565b90565b6109e47fa3acc27117418996340b84e5a90f3ef4c49d22c79e44aad822ec9c313e1eb8e261099f565b90565b6109f160406104bf565b90565b634e487b7160e01b5f52602160045260245ffd5b60031115610a1257565b6109f4565b90610a2182610a08565b565b90610a2d90610a17565b9052565b90565b60ff1690565b610a4e610a49610a5392610a31565b61064b565b610a34565b90565b90610a6090610a34565b9052565b610a78610a73610a7d92610a31565b61099a565b61019e565b90565b610a8a60406104bf565b90565b610a9760a06104bf565b90565b52565b610b5b90610aa961098c565b5091610b52610ab66109bb565b91610b495f610ae4610adb5f610ad6610acd6109e7565b945f8601610a23565b610a3a565b60208301610a56565b610b40610b22610af35f610a64565b94610b1d610b005f610a64565b610b14610b0b610a80565b935f850161057a565b6020830161057a565b610fd5565b95610b37610b2e610a8d565b995f8b0161057a565b6020890161057a565b60408701610a9a565b6060850161057a565b6080830161057a565b90565b5f90565b905090565b5f7f72697363302e52656365697074436c61696d0000000000000000000000000000910152565b610b9a60128092610b62565b610ba381610b67565b0190565b610bb090610b8e565b90565b610bbb610072565b3d5f823e3d90fd5b60205f610bce610072565b80610bd881610ba7565b039060025afa15610bf057610bed5f5161099a565b90565b610bb3565b610bff905161019e565b90565b610c0c9051610a17565b90565b610c1890610a17565b90565b90565b610c32610c2d610c3792610c1b565b61064b565b610a34565b90565b63ffffffff1690565b610c6290610c5c610c56610c6794610a34565b91610c3a565b9061069b565b610c3a565b90565b610c749051610a34565b90565b610c8b610c86610c9092610a34565b61064b565b610c3a565b90565b61ffff1690565b610cae610ca9610cb392610645565b61064b565b610c93565b90565b90565b610ccd610cc8610cd292610cb6565b61064b565b610a34565b90565b610cf490610cee610ce8610cf994610a34565b91610c93565b9061069b565b610c93565b90565b60e01b90565b610d0b90610cfc565b90565b610d1a610d1f91610c3a565b610d02565b9052565b60f01b90565b610d3290610d23565b90565b610d41610d4691610c93565b610d29565b9052565b6020600496610d9d8260029c9b98610d9582610dad9a610d8d610db59f9a8f9c610d85858d610d7d610da59f8396610536565b018092610536565b018092610536565b018092610536565b018092610536565b018092610d0e565b018092610d0e565b018092610d35565b0190565b610dde610dd592602092610dcc816101e2565b94858093610b62565b938491016101ef565b0190565b610deb91610db9565b90565b5f610ee2602092610dfd610b5e565b50610ed1610e09610bc3565b610ec3610e1860608501610bf5565b93610e24878201610bf5565b90610e30898201610bf5565b90610e3d60808201610bf5565b610e91610e81610e7c8d6040610e738f610e5e610e6391848b015101610c02565b610c0f565b610e6d6018610c1e565b90610c43565b96015101610c6a565b610c77565b610e8b6018610c1e565b90610c43565b92610eaf610e9f6004610c9a565b610ea96008610cb9565b90610cd5565b94610eb8610072565b998a988e8a01610d4a565b868201810382520382610496565b610ed9610072565b91829182610de2565b039060025afa15610efa57610ef75f5161099a565b90565b610bb3565b5f7f72697363302e4f75747075740000000000000000000000000000000000000000910152565b610f32600c8092610b62565b610f3b81610eff565b0190565b610f4890610f26565b90565b60205f610f56610072565b80610f6081610f3f565b039060025afa15610f7857610f755f5161099a565b90565b610bb3565b90565b610f94610f8f610f9992610f7d565b61064b565b610c93565b90565b92610fc96020610fd194610fc18288610fb960029b9a8399610536565b018092610536565b018092610536565b018092610d35565b0190565b5f611059602092610fe4610b5e565b50611048610ff0610f4b565b61103a61100987611002888701610bf5565b9501610bf5565b6110266110166002610f80565b6110206008610cb9565b90610cd5565b9061102f610072565b9586948a8601610f9c565b868201810382520382610496565b611050610072565b91829182610de2565b039060025afa156110715761106e5f5161099a565b90565b610bb356fea26469706673582212208745376d1f5a4b2ec2fa9b3111ce35b44d07768476806316037797b6e9c4786664736f6c634300081e0033",
    "linkReferences": {}
  },
  "methodIdentifiers": {
    "_setTestVerifier(address)": "9b8b30c8",
    "depositLiquidity(uint256)": "76d58e1a",
    "depositedLiqudity(address)": "48386b92",
    "prover()": "32a8f30f",
    "sXMRAddress()": "785ec239",
    "verifier()": "2b7ac3f3",
    "verifyDeposit(((bytes4,bytes32[8],uint8),bytes32,uint256,(address,bytes4,uint256,uint256,bytes32)),address,string,uint256)": "68dc52b1",
    "withdrawLiquidity(uint256)": "0a861f2a",
    "withdrawRequests(address)": "52df49ec"
  },
  "id": 66
}